S00E000053575F4943552E737265632C
S11300000C947B000C94B9010C9458100C946D1052
S11300100C9498000C9498000C9498000C949800FC
S11300200C9498000C9498000C9498000C948210F2
S11300300C9498000C9498000C9498000C949800DC
S11300400C9498000C9498000C9498000C949800CC
S11300500C9498003D10630F630F630F630F630FDD
S1130060630F630F630F630F4010630F630F630F1E
S1130070630F630F630F630F630F630F4310630F0B
S1130080630F630F630F630F630F630F630F630FDC
S11300904610630F630F630F630F630F630F630FE8
S11300A0630F630F4910630F630F630F630F630FD5
S11300B0630F630F630F630F4C10630F630F630FC2
S11300C0630F630F630F630F630F630F4F10630FAF
S11300D0630F630F630F630F630F630F630F630F8C
S11300E05210630F630F630F630F630F630F630F8C
S11300F0630F630F551011241FBECFE5D8E0DEBF98
S1130100CDBF10E0A0E6B0E0EEE8F4E202C0059056
S11301100D92A439B107D9F720E0A4E9B0E001C0F9
S11301201D92AE39B207E1F70E94310F0C944512CB
S11301300C940000423008F06DC04130A1F58130CC
S113014089F028F08230C9F0833011F108952AB380
S113015081E090E002C0880F991F6A95E2F7822B34
S11301608ABB089527B381E090E002C0880F991FED
S11301706A95E2F7822B87BB089524B381E090E06F
S113018002C0880F991F6A95E2F7822B84BB0895F9
S113019021B381E090E002C0880F991F6A95E2F7CD
S11301A0822B81BB0895813091F028F08230D9F000
S11301B0833029F108952AB381E090E002C0880FCA
S11301C0991F6A95E2F7809582238ABB089527B325
S11301D081E090E002C0880F991F6A95E2F780954C
S11301E0822387BB089524B381E090E002C0880F86
S11301F0991F6A95E2F78095822384BB089521B301
S113020081E090E002C0880F991F6A95E2F780951B
S1130210822381BB0895423008F06DC04130A1F5BE
S1130220813089F028F08230C9F0833011F10895CB
S11302302BB381E090E002C0880F991F6A95E2F722
S1130240822B8BBB089528B381E090E002C0880F15
S1130250991F6A95E2F7822B88BB089525B381E044
S113026090E002C0880F991F6A95E2F7822B85BB44
S1130270089522B381E090E002C0880F991F6A9527
S1130280E2F7822B82BB0895813091F028F082300E
S1130290D9F0833029F108952BB381E090E002C0B6
S11302A0880F991F6A95E2F7809582238BBB089586
S11302B028B381E090E002C0880F991F6A95E2F7A5
S11302C08095822388BB089525B381E090E002C025
S11302D0880F991F6A95E2F78095822385BB08955C
S11302E022B381E090E002C0880F991F6A95E2F77B
S11302F08095822382BB0895813041F028F08230BA
S113030039F0833039F008956ABB089567BB0895C6
S113031064BB089561BB0895823039F485B78E7F3C
S113032085BF85B7826085BF0895833031F485B772
S1130330816085BF85B7826085BF089585B7886071
S113034085BF85B7846085BF84B7806484BF089502
S11303508BB780648BBF08958BB780688BBF08957B
S11303608BB780628BBF089590939500809394001F
S113037008951F920F920FB60F9211242F933F935B
S11303804F935F936F937F938F939F93AF93BF9399
S1130390EF93FF93E0919400F09195000995FF91FC
S11303A0EF91BF91AF919F918F917F916F915F91E9
S11303B04F913F912F910F900FBE0F901F90189562
S11303C08FB780688FBF08950F931F93CF93DF93E8
S11303D000D000D0CDB7DEB7082F84E0898385E054
S11303E08A8386E08B8387E08C8310E014C0402FDF
S11303F050E0012E02C0559547950A94E2F74170EA
S1130400E1E0F0E0EC0FFD1FE10FF11D608180E001
S11304100E940B011F5F143050F30F900F900F9048
S11304200F90DF91CF911F910F91089541E062E009
S113043080E00E940B018FE39FE10197F1F700C078
S1130440000040E062E080E00E940B010895CF9339
S1130450C82F40E060E080E00E940B0140E061E0D2
S113046080E00E940B018C2F82958F700E94E40122
S11304700E9416028C2F0E94E4010E941602CF9162
S11304800895CF93C82F41E060E080E00E940B0103
S113049040E061E080E00E940B018C2F82958F7018
S11304A00E94E4010E9416028C2F0E94E4010E9423
S11304B01602CF9108952FEF83EF91E021508040F1
S11304C09040E1F700C0000082E00E94E4010E9435
S11304D0160282E00E94E4010E94160288E00E9453
S11304E0E4010E9416028CE00E94270281E00E942F
S11304F027020895EF92FF920F931F93CF937C01ED
S1130500C0E00AC0C03119F480EC0E942702F8014F
S113051080810E944102CF5F87010C0F111DF801F9
S113052080818111EFCFCF911F910F91FF90EF90B8
S11305300895CF92DF92FF920F931F93CF93DF938F
S1130540CDB7DEB72A970FB6F894DEBF0FBECDBF86
S11305508C0199235CF1F12C01C0F82ECF2CD12C05
S1130560C8016AE070E00E941712E1E0F0E0EC0FCD
S1130570FD1FEC0DFD1D8083062F172F81E08F0DCD
S11305801016110654F310E00EC0F601E11BF10938
S113059081E090E08C0F9D1FE80FF91F8081805D42
S11305A00E9441021F5FF11680F732C0992384F53F
S11305B08DE20E94410288279927801B910B10E04D
S11305C001C0122FC12ED12C6AE070E00E941712D4
S11305D0E1E0F0E0EC0FFD1FEC0DFD1D8083862FA4
S11305E0972F21E0210F181619065CF300E00EC0C6
S11305F0F601E01BF10981E090E08C0F9D1FE80FEC
S1130600F91F8081805D0E9441020F5F101780F7FF
S11306102A960FB6F894DEBF0FBECDBFDF91CF91FF
S11306201F910F91FF90DF90CF900895662329F0DA
S1130630613011F4805C01C080E080680E94270270
S11306400895EF92FF920F931F93CF93DF93F82EA9
S1130650E62ED42F8901842F880F880F880F8F7777
S113066080640E942702C0E007C0F801EC0FF11D6E
S113067080810E944102CF5FC830B8F36E2D8F2D68
S11306800E9416038D2F0E944102DF91CF911F918A
S11306900F91FF90EF900895809196008F5F809363
S11306A09600813031F40E94E71082E00E948C01B0
S11306B00895823051F40E94EA1090939A00809336
S11306C0990083E00E948C010895833051F40E94C4
S11306D0EA109093980080939700109296000E94DD
S11306E0E710089560E080E00E94160380E790E040
S11306F00E947A02089560E080E00E94160383E776
S113070090E00E947A0228E630E040E060E089E070
S11307100E94210388E890E00E947A0220E630E0FB
S113072041E060E08BE00E94210360E080E00E94F1
S1130730160384E790E00E947A0228E630E040E065
S113074060E088E00E94210388E890E00E947A0239
S113075020E630E041E060E08AE00E9421038BE77C
S113076090E00E947A0260E080E00E94160385E730
S113077090E00E947A0228E630E040E060E087E002
S11307800E94210388E890E00E947A0220E630E08B
S113079041E060E089E00E9421038AE790E00E9442
S11307A07A0260E080E00E94160386E790E00E94EF
S11307B07A0228E630E040E060E086E00E9421030F
S11307C088E890E00E947A0220E630E041E060E0B0
S11307D088E00E94210389E790E00E947A0260E0A9
S11307E080E00E94160387E790E00E947A0228E6E0
S11307F030E040E060E085E00E94210388E890E07A
S11308000E947A0220E630E041E060E087E00E9446
S1130810210388E790E00E947A0260E080E00E9471
S1130820160388E790E00E947A0228E630E040E070
S113083060E084E00E94210388E890E00E947A024C
S113084020E630E041E060E086E00E94210387E793
S113085090E00E947A0260E080E00E94160389E73B
S113086090E00E947A0228E630E040E060E083E015
S11308700E94210388E890E00E947A0220E630E09A
S113088041E060E085E00E94210386E790E00E9459
S11308907A0260E080E00E9416038AE790E00E94FA
S11308A07A0228E630E040E060E082E00E94210322
S11308B088E890E00E947A0220E630E041E060E0BF
S11308C084E00E94210385E790E00E947A0260E0C0
S11308D080E00E9416038BE790E00E947A0228E6EB
S11308E030E040E060E081E00E94210388E890E08D
S11308F00E947A0220E630E041E060E083E00E945A
S1130900210384E790E00E947A0260E080E00E9484
S1130910160328E630E040E060E080E00E94210316
S113092088E890E00E947A0220E630E041E060E04E
S113093082E00E94210383E790E00E947A020895F6
S113094060E080E00E94160384E790E00E947A024F
S113095028E630E040E060E088E00E94210387E878
S113096090E00E947A0220E630E041E060E08BE013
S11309700E94210360E080E00E94160385E790E076
S11309800E947A0228E630E040E060E087E00E94BE
S1130990210387E890E00E947A0220E630E041E0FB
S11309A060E08AE00E9421038BE790E00E947A02D3
S11309B060E080E00E94160386E790E00E947A02DD
S11309C028E630E040E060E086E00E94210387E80A
S11309D090E00E947A0220E630E041E060E089E0A5
S11309E00E9421038AE790E00E947A0260E080E09E
S11309F00E94160387E790E00E947A0228E630E01E
S1130A0040E060E085E00E94210387E890E00E94D6
S1130A107A0220E630E041E060E088E00E942103B1
S1130A2089E790E00E947A0260E080E00E94160369
S1130A3088E790E00E947A0228E630E040E060E037
S1130A4084E00E94210387E890E00E947A0220E675
S1130A5030E041E060E087E00E94210388E790E015
S1130A600E947A0260E080E00E94160389E790E029
S1130A700E947A0228E630E040E060E083E00E94D1
S1130A80210387E890E00E947A0220E630E041E00A
S1130A9060E086E00E94210387E790E00E947A02EA
S1130AA060E080E00E9416038AE790E00E947A02E8
S1130AB028E630E040E060E082E00E94210387E81D
S1130AC090E00E947A0220E630E041E060E085E0B8
S1130AD00E94210386E790E00E947A0260E080E0B1
S1130AE00E9416038BE790E00E947A0228E630E029
S1130AF040E060E081E00E94210387E890E00E94EA
S1130B007A0220E630E041E060E084E00E942103C4
S1130B1085E790E00E947A0228E630E040E060E059
S1130B2080E00E94210387E890E00E947A0220E698
S1130B3030E041E060E083E00E94210384E790E03C
S1130B400E947A0260E080E00E94160387E890E049
S1130B500E947A0220E630E041E060E082E00E94F8
S1130B60210384E790E00E947A0228E630E040E026
S1130B7060E08BE00E94210360E080E00E941603A5
S1130B8088E890E00E947A0220E630E041E060E0EC
S1130B9081E00E94210384E790E00E947A0228E623
S1130BA030E040E060E08AE00E94210388E890E0C1
S1130BB00E947A0220E630E041E060E080E00E949A
S1130BC0210384E790E00E947A0228E630E040E0C6
S1130BD060E089E00E94210387E890E00E947A02A5
S1130BE0089560E080E00E94160385E790E00E948B
S1130BF07A0228E630E040E060E087E00E942103CA
S1130C0086E890E00E947A0220E630E041E060E06D
S1130C108BE00E94210360E080E00E94160386E7D7
S1130C2090E00E947A0228E630E040E060E086E04E
S1130C300E94210386E890E00E947A0220E630E0D8
S1130C4041E060E08AE00E9421038BE790E00E948B
S1130C507A0260E080E00E94160387E790E00E9439
S1130C607A0228E630E040E060E085E00E9421035B
S1130C7086E890E00E947A0220E630E041E060E0FD
S1130C8089E00E9421038AE790E00E947A0260E0F2
S1130C9080E00E94160388E790E00E947A0228E62A
S1130CA030E040E060E084E00E94210386E890E0C8
S1130CB00E947A0220E630E041E060E088E00E9491
S1130CC0210389E790E00E947A0260E080E00E94BC
S1130CD0160389E790E00E947A0228E630E040E0BB
S1130CE060E083E00E94210386E890E00E947A029B
S1130CF020E630E041E060E087E00E94210388E7DD
S1130D0090E00E947A0260E080E00E9416038AE785
S1130D1090E00E947A0228E630E040E060E082E061
S1130D200E94210386E890E00E947A0220E630E0E7
S1130D3041E060E086E00E94210387E790E00E94A2
S1130D407A0260E080E00E9416038BE790E00E9444
S1130D507A0228E630E040E060E081E00E9421036E
S1130D6086E890E00E947A0220E630E041E060E00C
S1130D7085E00E94210386E790E00E947A0228E63B
S1130D8030E040E060E080E00E94210387E890E0EA
S1130D900E947A0220E630E041E060E083E00E94B5
S1130DA0210384E790E00E947A0260E080E00E94E0
S1130DB0160386E890E00E947A0220E630E041E0E3
S1130DC060E083E00E94210385E790E00E947A02BC
S1130DD028E630E040E060E08BE00E94210360E020
S1130DE080E00E94160387E890E00E947A0220E6E1
S1130DF030E041E060E082E00E94210385E790E07A
S1130E000E947A0228E630E040E060E08AE00E9436
S1130E10210388E890E00E947A0260E080E00E946A
S1130E20160388E890E00E947A0220E630E041E070
S1130E3060E082E00E94210385E790E00E947A024C
S1130E4028E630E040E060E089E00E94210387E882
S1130E5090E00E947A0220E630E041E060E080E029
S1130E600E94210385E790E00E947A0228E630E0A0
S1130E7040E060E088E00E94210386E890E00E9460
S1130E807A02089560E080E00E94160386E790E00D
S1130E900E947A0228E630E040E060E086E00E94AA
S1130EA0210385E890E00E947A0220E630E041E0E8
S1130EB060E08BE00E94210360E080E00E94160362
S1130EC087E790E00E947A0228E630E040E060E0A4
S1130ED085E00E94210385E890E00E947A0220E6E2
S1130EE030E041E060E08AE00E9421038BE790E07B
S1130EF00E947A0260E080E00E94160388E790E096
S1130F000E947A0228E630E040E060E084E00E943B
S1130F10210385E890E00E947A0220E630E041E077
S1130F2060E089E00E9421038AE790E00E947A024F
S1130F3060E080E00E94160389E790E00E947A0254
S1130F4028E630E040E060E083E00E94210385E889
S1130F5090E00E947A0220E630E041E060E088E020
S1130F600E94210389E790E00E947A0260E080E019
S1130F700E9416038AE790E00E947A0228E630E095
S1130F8040E060E082E00E94210385E890E00E9456
S1130F907A0220E630E041E060E087E00E9421032D
S1130FA088E790E00E947A0260E080E00E941603E5
S1130FB08BE790E00E947A0228E630E040E060E0AF
S1130FC081E00E94210385E890E00E947A0220E6F5
S1130FD030E041E060E086E00E94210387E790E092
S1130FE00E947A0228E630E040E060E080E00E945F
S1130FF0210385E890E00E947A0220E630E041E097
S113100060E085E00E94210386E790E00E947A0276
S113101060E080E00E94160385E890E00E947A0276
S113102020E630E041E060E084E00E94210386E7AE
S113103090E00E947A0228E630E040E060E08BE035
S11310400E94210360E080E00E94160386E890E09D
S11310500E947A0220E630E041E060E083E00E94F2
S1131060210385E790E00E947A0228E630E040E020
S113107060E08AE00E94210388E890E00E947A02FE
S113108060E080E00E94160387E890E00E947A0204
S113109020E630E041E060E082E00E94210385E741
S11310A090E00E947A0228E630E040E060E089E0C7
S11310B00E94210387E890E00E947A0260E080E0C9
S11310C00E94160388E890E00E947A0220E630E04D
S11310D041E060E081E00E94210385E790E00E9406
S11310E07A0228E630E040E060E088E00E942103D4
S11310F086E890E00E947A0220E630E041E060E079
S113110080E00E94210385E790E00E947A0228E6AD
S113111030E040E060E087E00E94210385E890E051
S11311200E947A02089560E080E00E94160387E737
S113113090E00E947A0228E630E040E060E085E03A
S11311400E94210384E890E00E947A0220E630E0C5
S113115041E060E08BE00E94210360E080E00E94B7
S1131160160388E790E00E947A0228E630E040E027
S113117060E084E00E94210384E890E00E947A0207
S113118020E630E041E060E08AE00E9421038BE742
S113119090E00E947A0260E080E00E94160389E7F2
S11311A090E00E947A0228E630E040E060E083E0CC
S11311B00E94210384E890E00E947A0220E630E055
S11311C041E060E089E00E9421038AE790E00E9408
S11311D07A0260E080E00E9416038AE790E00E94B1
S11311E07A0228E630E040E060E082E00E942103D9
S11311F084E890E00E947A0220E630E041E060E07A
S113120088E00E94210389E790E00E947A0260E06E
S113121080E00E9416038BE790E00E947A0228E6A1
S113122030E040E060E081E00E94210384E890E047
S11312300E947A0220E630E041E060E087E00E940C
S1131240210388E790E00E947A0228E630E040E03B
S113125060E080E00E94210384E890E00E947A022A
S113126020E630E041E060E086E00E94210387E769
S113127090E00E947A0260E080E00E94160384E815
S113128090E00E947A0220E630E041E060E085E0F0
S11312900E94210387E790E00E947A0228E630E06A
S11312A040E060E08BE00E94210360E080E00E9467
S11312B0160385E890E00E947A0220E630E041E0DF
S11312C060E084E00E94210387E790E00E947A02B4
S11312D028E630E040E060E08AE00E94210388E8EC
S11312E090E00E947A0260E080E00E94160386E8A3
S11312F090E00E947A0220E630E041E060E083E082
S11313000E94210387E790E00E947A0228E630E0F9
S113131040E060E089E00E94210387E890E00E94B9
S11313207A0260E080E00E94160387E890E00E9461
S11313307A0220E630E041E060E082E00E9421038E
S113134087E790E00E947A0228E630E040E060E01F
S113135088E00E94210386E890E00E947A0260E01F
S113136080E00E94160388E890E00E947A0220E65A
S113137030E041E060E081E00E94210387E790E0F3
S11313800E947A0228E630E040E060E087E00E94B4
S1131390210385E890E00E947A0220E630E041E0F3
S11313A060E080E00E94210387E790E00E947A02D7
S11313B028E630E040E060E086E00E94210384E813
S11313C090E00E947A02089560E080E00E94160393
S11313D088E790E00E947A0228E630E040E060E08E
S11313E084E00E94210383E890E00E947A0220E6D0
S11313F030E041E060E08BE00E94210360E080E0A7
S11314000E94160389E790E00E947A0228E630E001
S113141040E060E083E00E94210383E890E00E94C2
S11314207A0220E630E041E060E08AE00E94210395
S11314308BE790E00E947A0260E080E00E9416034D
S11314408AE790E00E947A0228E630E040E060E01B
S113145082E00E94210383E890E00E947A0220E661
S113146030E041E060E089E00E9421038AE790E0F7
S11314700E947A0260E080E00E9416038BE790E00D
S11314800E947A0228E630E040E060E081E00E94B9
S1131490210383E890E00E947A0220E630E041E0F4
S11314A060E088E00E94210389E790E00E947A02CC
S11314B028E630E040E060E080E00E94210383E819
S11314C090E00E947A0220E630E041E060E087E0AC
S11314D00E94210388E790E00E947A0260E080E0A5
S11314E00E94160383E890E00E947A0220E630E02E
S11314F041E060E086E00E94210388E790E00E94DA
S11315007A0228E630E040E060E08BE00E942103AC
S113151060E080E00E94160384E890E00E947A0272
S113152020E630E041E060E085E00E94210388E7A6
S113153090E00E947A0228E630E040E060E08AE031
S11315400E94210388E890E00E947A0260E080E033
S11315500E94160385E890E00E947A0220E630E0BB
S113156041E060E084E00E94210388E790E00E946B
S11315707A0228E630E040E060E089E00E9421033E
S113158087E890E00E947A0260E080E00E941603FF
S113159086E890E00E947A0220E630E041E060E0D4
S11315A083E00E94210388E790E00E947A0228E603
S11315B030E040E060E088E00E94210386E890E0AB
S11315C00E947A0260E080E00E94160387E890E0BF
S11315D00E947A0220E630E041E060E082E00E946E
S11315E0210388E790E00E947A0228E630E040E098
S11315F060E087E00E94210385E890E00E947A027F
S113160060E080E00E94160388E890E00E947A027D
S113161020E630E041E060E081E00E94210388E7B9
S113162090E00E947A0228E630E040E060E086E044
S11316300E94210384E890E00E947A0220E630E0D0
S113164041E060E080E00E94210388E790E00E948E
S11316507A0228E630E040E060E085E00E94210361
S113166083E890E00E947A02089560E080E00E949E
S1131670160389E790E00E947A0228E630E040E011
S113168060E083E00E94210382E890E00E947A02F5
S113169020E630E041E060E08BE00E94210360E05E
S11316A080E00E9416038AE790E00E947A0228E60E
S11316B030E040E060E082E00E94210382E890E0B4
S11316C00E947A0220E630E041E060E08AE00E9475
S11316D021038BE790E00E947A0260E080E00E94A0
S11316E016038BE790E00E947A0228E630E040E09F
S11316F060E081E00E94210382E890E00E947A0287
S113170020E630E041E060E089E00E9421038AE7BE
S113171090E00E947A0228E630E040E060E080E059
S11317200E94210382E890E00E947A0220E630E0E1
S113173041E060E088E00E94210389E790E00E9494
S11317407A0260E080E00E94160382E890E00E9442
S11317507A0220E630E041E060E087E00E94210365
S113176089E790E00E947A0228E630E040E060E0F9
S11317708BE00E94210360E080E00E94160383E86E
S113178090E00E947A0220E630E041E060E086E0EA
S11317900E94210389E790E00E947A0228E630E063
S11317A040E060E08AE00E94210388E890E00E9423
S11317B07A0260E080E00E94160384E890E00E94D0
S11317C07A0220E630E041E060E085E00E942103F7
S11317D089E790E00E947A0228E630E040E060E089
S11317E089E00E94210387E890E00E947A0260E089
S11317F080E00E94160385E890E00E947A0220E6C9
S113180030E041E060E084E00E94210389E790E059
S11318100E947A0228E630E040E060E088E00E941E
S1131820210386E890E00E947A0260E080E00E9452
S1131830160386E890E00E947A0220E630E041E058
S113184060E083E00E94210389E790E00E947A022D
S113185028E630E040E060E087E00E94210385E86C
S113186090E00E947A0260E080E00E94160387E81C
S113187090E00E947A0220E630E041E060E082E0FD
S11318800E94210389E790E00E947A0228E630E072
S113189040E060E086E00E94210384E890E00E943A
S11318A07A0260E080E00E94160388E890E00E94DB
S11318B07A0220E630E041E060E081E00E9421030A
S11318C089E790E00E947A0228E630E040E060E098
S11318D085E00E94210383E890E00E947A0220E6DA
S11318E030E041E060E080E00E94210389E790E07D
S11318F00E947A0228E630E040E060E084E00E9442
S1131900210382E890E00E947A02089560E080E07A
S11319100E9416038AE790E00E947A0228E630E0EB
S113192040E060E082E00E94210381E890E00E94B0
S11319307A0220E630E041E060E08BE00E9421037F
S113194060E080E00E9416038BE790E00E947A0238
S113195028E630E040E060E081E00E94210381E875
S113196090E00E947A0220E630E041E060E08AE004
S11319700E9421038BE790E00E947A0228E630E07F
S113198040E060E080E00E94210381E890E00E9452
S11319907A0220E630E041E060E089E00E94210321
S11319A08AE790E00E947A0260E080E00E941603D9
S11319B081E890E00E947A0220E630E041E060E0B5
S11319C088E00E9421038AE790E00E947A0228E6D8
S11319D030E040E060E08BE00E94210360E080E0C2
S11319E00E94160382E890E00E947A0220E630E02A
S11319F041E060E087E00E9421038AE790E00E94D2
S1131A007A0228E630E040E060E08AE00E942103A8
S1131A1088E890E00E947A0260E080E00E94160369
S1131A2083E890E00E947A0220E630E041E060E042
S1131A3086E00E9421038AE790E00E947A0228E669
S1131A4030E040E060E089E00E94210387E890E014
S1131A500E947A0260E080E00E94160384E890E02D
S1131A600E947A0220E630E041E060E085E00E94D6
S1131A7021038AE790E00E947A0228E630E040E001
S1131A8060E088E00E94210386E890E00E947A02E8
S1131A9060E080E00E94160385E890E00E947A02EC
S1131AA020E630E041E060E084E00E9421038AE720
S1131AB090E00E947A0228E630E040E060E087E0AF
S1131AC00E94210385E890E00E947A0260E080E0B1
S1131AD00E94160386E890E00E947A0220E630E035
S1131AE041E060E083E00E9421038AE790E00E94E5
S1131AF07A0228E630E040E060E086E00E942103BC
S1131B0084E890E00E947A0260E080E00E9416037C
S1131B1087E890E00E947A0220E630E041E060E04D
S1131B2082E00E9421038AE790E00E947A0228E67C
S1131B3030E040E060E085E00E94210383E890E02B
S1131B400E947A0260E080E00E94160388E890E038
S1131B500E947A0220E630E041E060E081E00E94E9
S1131B6021038AE790E00E947A0228E630E040E010
S1131B7060E084E00E94210382E890E00E947A02FF
S1131B8020E630E041E060E080E00E9421038AE743
S1131B9090E00E947A0228E630E040E060E083E0D2
S1131BA00E94210381E890E00E947A02089560E097
S1131BB080E00E9416038BE790E00E947A0228E6F8
S1131BC030E040E060E081E00E94210380E890E0A2
S1131BD00E947A0220E630E041E060E08BE00E945F
S1131BE0210328E630E040E060E080E00E94210329
S1131BF080E890E00E947A0220E630E041E060E074
S1131C008AE00E9421038BE790E00E947A0260E060
S1131C1080E00E94160380E890E00E947A0220E6A9
S1131C2030E041E060E089E00E9421038BE790E02E
S1131C300E947A0228E630E040E060E08BE00E94F7
S1131C40210360E080E00E94160381E890E00E9496
S1131C507A0220E630E041E060E088E00E9421035F
S1131C608BE790E00E947A0228E630E040E060E0F2
S1131C708AE00E94210388E890E00E947A0260E0F2
S1131C8080E00E94160382E890E00E947A0220E637
S1131C9030E041E060E087E00E9421038BE790E0C0
S1131CA00E947A0228E630E040E060E089E00E9489
S1131CB0210387E890E00E947A0260E080E00E94BD
S1131CC0160383E890E00E947A0220E630E041E0C7
S1131CD060E086E00E9421038BE790E00E947A0294
S1131CE028E630E040E060E088E00E94210386E8D6
S1131CF090E00E947A0260E080E00E94160384E88B
S1131D0090E00E947A0220E630E041E060E085E065
S1131D100E9421038BE790E00E947A0228E630E0DB
S1131D2040E060E087E00E94210385E890E00E94A3
S1131D307A0260E080E00E94160385E890E00E9449
S1131D407A0220E630E041E060E084E00E94210372
S1131D508BE790E00E947A0228E630E040E060E001
S1131D6086E00E94210384E890E00E947A0260E009
S1131D7080E00E94160386E890E00E947A0220E642
S1131D8030E041E060E083E00E9421038BE790E0D3
S1131D900E947A0228E630E040E060E085E00E949C
S1131DA0210383E890E00E947A0260E080E00E94D0
S1131DB0160387E890E00E947A0220E630E041E0D2
S1131DC060E082E00E9421038BE790E00E947A02A7
S1131DD028E630E040E060E084E00E94210382E8ED
S1131DE090E00E947A0260E080E00E94160388E896
S1131DF090E00E947A0220E630E041E060E081E079
S1131E000E9421038BE790E00E947A0228E630E0EA
S1131E1040E060E083E00E94210381E890E00E94BA
S1131E207A0220E630E041E060E080E00E94210395
S1131E308BE790E00E947A0228E630E040E060E020
S1131E4082E00E94210380E890E00E947A020895D3
S1131E5060E080E00E9416038DE790E00E947A0221
S1131E60089541E063E081E00E949A0041E062E06D
S1131E7082E00E949A0060EF80E00E947C0141E0D1
S1131E8060E080E00E949A0041E061E080E00E940E
S1131E909A0041E062E080E00E949A000E945B02A6
S1131EA00E94E00183E00E948C010E949E010E9436
S1131EB0A8010E94AC010E94B0010E94D1108CE4E0
S1131EC093E00E94B40180919B000E94A91080912C
S1131ED09B00811146C061E00E9416038AE890E0ED
S1131EE00E947A0261E085E00E94160380E20E946B
S1131EF0410261E084E00E94160380E20E944102F4
S1131F0061E083E00E94160380E090E00E94990261
S1131F1061E089E00E9416038EE890E00E947A0254
S1131F2080E091E00E94990260E08EE00E94160336
S1131F3080E20E94410260E08FE00E94160380E28A
S1131F400E94410260E08CE00E94160380919B0095
S1131F5090E00E94990285E20E9441020E9472036D
S1131F60B2CF80919B008436C9F561E080E00E9485
S1131F7016038AE890E00E947A0261E085E00E94FC
S1131F80160380E20E94410261E084E00E9416038D
S1131F9080E20E94410261E083E00E94160380E037
S1131FA091E00E94990261E089E00E9416038EE8A4
S1131FB090E00E947A0280E091E00E94990260E041
S1131FC08CE00E94160380919B0090E00E9499028D
S1131FD085E20E9441020E94280F75CF61E080E0F3
S1131FE00E9416038AE890E00E947A0261E085E08C
S1131FF00E94160380E20E94410261E084E00E9494
S1132000160380E20E94410261E083E00E9416030D
S11320108091990090919A000E94990261E089E070
S11320200E9416038EE890E00E947A028091970045
S1132030909198000E94990260E08FE00E9416033C
S113204080E20E94410260E08CE00E9416038091CD
S11320509B0090E00E94990285E20E944102E09177
S11320609B008E2F90E0FC013A97E135F10508F0D2
S11320702ACFE65DFF4F0C942B120E947B0323CFE3
S11320800E94A00420CF0E94F1051DCF0E944207A8
S11320901ACF0E94930817CF0E94E40914CF0E941C
S11320A0350B11CF0E94860C0ECF0E94D70D0BCF9B
S11320B01F920F920FB60F9211248F9380919B0061
S11320C0882329F080919B008A5080939B008F91F4
S11320D00F900FBE0F901F9018951F920F920FB67E
S11320E00F9211248F9380919B00843628F4809161
S11320F09B00865F80939B008F910F900FBE0F9083
S11321001F9018951F920F920FB60F9211242F93C0
S11321103F934F935F936F937F938F939F93AF936B
S1132120BF93EF93FF93E0919C00F0919D0009957C
S1132130FF91EF91BF91AF919F918F917F916F919B
S11321405F914F913F912F910F900FBE0F901F9071
S1132150189593B7987F93BF93B7936093BF93B742
S1132160906493BF93B7986093BF93B7906293BF03
S113217093B79F7E93BF682F70E080E090E00E9449
S11321801E1123E333E343E250E40E94AA110E94A8
S1132190ED106CBF08B601FEFDCF88B7826088BF22
S11321A008958FB58E7F8FBD8FB58D7F8FBD8EB512
S11321B0877F8EBD8EB58F7E8EBD8EB581608EBDC0
S11321C08EB582608EBD8EB58B7F8EBD08951DBC8D
S11321D01CBC08958CB59DB508950E94891188F0A2
S11321E09F5798F0B92F9927B751B0F0E1F0660FD7
S11321F0771F881F991F1AF0BA95C9F714C0B13018
S113220091F00E94A311B1E008950C94A311672FDB
S1132210782F8827B85F39F0B93FCCF38695779546
S11322206795B395D9F73EF490958095709561952F
S11322307F4F8F4F9F4F0895E89409C097FB3EF45A
S113224090958095709561957F4F8F4F9F4F9923FF
S1132250A9F0F92F96E9BB279395F695879577957D
S11322606795B795F111F8CFFAF4BB0F11F460FF3D
S11322701BC06F5F7F4F8F4F9F4F16C0882311F095
S113228096E911C0772321F09EE8872F762F05C0A9
S1132290662371F096E8862F70E060E02AF09A9544
S11322A0660F771F881FDAF7880F9695879597F939
S11322B0089597F99F6780E870E060E008959FEFC4
S11322C080EC089500240A941616170618060906C9
S11322D0089500240A941216130614060506089598
S11322E0092E0394000C11F4882352F0BB0F40F420
S11322F0BF2B11F460FF04C06F5F7F4F8F4F9F4F60
S1132300089557FD9058440F551F59F05F3F71F0E1
S11323104795880F97FB991F61F09F3F79F0879548
S11323200895121613061406551FF2CF4695F1DFD1
S113233008C0161617061806991FF1CF8695710561
S1132340610508940895E894BB2766277727CB0195
S113235097F908950E94BD110C9470110E946211A6
S113236038F00E94691120F0952311F00C94591152
S11323700C945F1111240C94A4110E94811170F328
S1132380959FC1F3950F50E0551F629FF001729F16
S1132390BB27F00DB11D639FAA27F00DB11DAA1F25
S11323A0649F6627B00DA11D661F829F2227B00D72
S11323B0A11D621F739FB00DA11D621F839FA00DFD
S11323C0611D221F749F3327A00D611D231F849F4D
S11323D0600D211D822F762F6A2F11249F575040A4
S11323E09AF0F1F088234AF0EE0FFF1FBB1F661F1F
S11323F0771F881F91505040A9F79E3F510580F0E8
S11324000C9459110C94A4115F3FE4F3983ED4F357
S1132410869577956795B795F795E7959F5FC1F78B
S1132420FE2B880F911D9695879597F9089597FB34
S1132430072E16F4009407D077FD09D00E943112BC
S113244007FC05D03EF4909581959F4F08957095B3
S113245061957F4F0895EE0FFF1F0590F491E02DD5
S11324600994AA1BBB1B51E107C0AA1FBB1FA617D7
S1132470B70710F0A61BB70B881F991F5A95A9F729
S111248080959095BC01CD010895F894FFCF8E
S113248E0000001C040407000000000704041C00E4
S113249E5F5F5F5F5F5F5F5F5F5F5F5F002D2D2D2F
S11324AE2D2D2D2D2D2D2D2D2D004F4E3D00544F08
S10724BE563D000083
S9030000FC
